:020000040800F2
:1000000018F20020E56F0008E5030008E703000888
:10001000EB030008EF030008F303000800000000F2
:10002000000000000000000000000000F7030008CE
:10003000F903000800000000FB030008FD030008AE
:10004000FF6F0008FF6F0008FF6F00086968000875
:10005000FF6F0008FF6F0008FF6F0008FF6F0008C8
:10006000FF6F0008FF6F0008FF6F0008FF6F0008B8
:10007000FF6F0008FF6F0008FF6F0008FF6F0008A8
:10008000FF6F0008FF6F0008FF6F0008FF6F000898
:10009000FF6F0008FF6F0008FF6F00085707000898
:1000A000FF6F0008FF6F0008FF6F0008FF6F000878
:1000B000FF6F0008FF030008FF6F0008FF6F0008D4
:1000C000FF6F0008FF6F0008FF6F0008FF6F000858
:1000D000FF6F00085903000879030008990300081E
:1000E000FF6F0008FF6F0008FF6F0008FF6F000838
:1000F000FF6F0008FF6F0008FF6F0008FF6F000828
:10010000FF6F00083B040008FF6F0008FF6F000846
:10011000FF6F0008FF6F0008FF6F0008FF6F000807
:10012000FF6F0008FF6F0008FF6F0008FF6F0008F7
:1001300000F002F800F076F80AA090E8000C824483
:100140008344AAF10107DA4501D100F06BF8AFF260
:10015000090EBAE80F0013F0010F18BFFB1A43F0A5
:100160000103184788270400A82704000A444FF019
:10017000000C10F8013B13F0070408BF10F8014B06
:100180001D1108BF10F8015B641E05D010F8016B4B
:10019000641E01F8016BF9D113F0080F1EBF10F8AF
:1001A000014BAD1C0C1B09D16D1E58BF01F801CBD2
:1001B000FAD505E014F8016B01F8016B6D1EF9D555
:1001C0009142D6D37047000000230024002500266A
:1001D000103A28BF78C1FBD8520728BF30C148BFAA
:1001E0000B607047662926F0F48064290DF088833F
:1001F00078290DF0C18373290EF0AD80002070477F
:100200001FB50EF04DF904000020002125F0F6F98D
:10021000401C60600020002125F0DAF9E0601FBD7D
:1002200010B510BD0EF06CFA1146FFF7E9FF00F0B3
:1002300009F80EF0E5FC03B4FFF7F2FF03BC06F08B
:1002400051FE0000ADF5AD6D002406F0DDFD06F0B9
:1002500043FE02F09BFC4FF4FA7006F011FE012001
:1002600009F06BFD4FF4806153480DF02BFA4FF409
:10027000806152480DF026FA4FF4806150480DF02D
:1002800021FA4FF4165006F03BFE4FF4165006F0DC
:1002900065FD00F0CBF906F088FA06F02DF900F0C4
:1002A00011FA02F06AFD06F0AFFB0121402007F0D1
:1002B0003CFD12F045FA03F042FD41F61F410920D2
:1002C00002F0BEFD40A900200AF0DBFFCDA901200D
:1002D0000AF0D7FF4FF4FA7006F0D2FD0CF07BF96C
:1002E0000CF084FB37E027A933480DF012FA28B14F
:1002F00027A802F0E1FC33A002F0DEFC1DA92F4884
:100300000DF007FA70B13048006818F011FE48B1DE
:1003100040F2014000901DA8039069462A480068F9
:1003200018F0FAFE04A926480DF0F3F918B104A953
:1003300026A00DF073FA322011F090FD601CC4B2BB
:100340000A2C08DD00242348006808B9012000E0D9
:10035000002020490860C6E710B540F225511E482C
:1003600007F018FF38B11C4807F094FEC4B22146CC
:1003700011480DF0B4F910BD10B540F225511748E1
:1003800007F008FF38B1154807F084FEC4B22146D3
:100390000A480DF0A4F910BD10B540F225511048DF
:1003A00007F0F8FE38B10E4807F074FEC4B22146DB
:1003B00003480DF094F910BDCC080020DC080020A3
:1003C000EC0800200D0A0000F400002025730D0A3F
:1003D0000000000098012442003801400044004021
:1003E00000480040704700BFFEE700BFFEE700BFC7
:1003F000FEE700BFFEE7704770477047704710B5D3
:100400000121104808F003FE40B101210D4808F019
:100410000FFE0D480068401C0B4908600B4800782F
:10042000401C0A490870084600780A2804D113F0D5
:100430000BF900200549087010BD10B505F013FF39
:1004400010BD000000040040A000002000000020BB
:100450000CB50020019000906B48006840F480309B
:100460006949086000BF6848006800F400300090E7
:100470000198401C0190009818B90198B0F5A06F40
:10048000F1D16148006810F4003F02D001200090D3
:1004900001E0002000900098012842D15B480068EC
:1004A00040F01000594908600846006820F0030039
:1004B00008600846006840F0020008605248406842
:1004C000514948600846406848600846406840F422
:1004D000806048600846406820F47C104860084608
:1004E000406840F4E81048600846006840F08070BA
:1004F000086000BF4448006810F0007FFAD042480E
:10050000406820F00300404948600846406840F0D9
:100510000200486000BF3C48406800F00C0008281A
:10052000F9D10CBD10B5FFF793FF10BD10B53648DB
:10053000006840F0010034490860084640683449CA
:1005400008403149486008460068324908402E4951
:1005500008600846006820F480200860084640686B
:1005600020F4FE0048604FF41F008860FFF7DAFFB8
:100570004FF000602849086010BD10B50021002030
:100580000022214B5B6803F00C0121B1042906D045
:10059000082928D107E0214B214C236027E01F4B7D
:1005A0001F4C236023E0184B5B6803F47010164B5C
:1005B0005B6803F48032022303EB904022B9194BAD
:1005C0004343174C23600DE00F4B5B6813F4003F6F
:1005D00004D0144B4343124C236003E00F4B4343BE
:1005E0000F4C236003E00D4B0D4C236000BF00BF98
:1005F000054B5B68C3F303130B4CE15C084B1B68B2
:10060000CB40074C236010BD001002400020024088
:100610000000FFF8FFFFF6FE08ED00E000127A0090
:100620000400002000093D000800002008B5012159
:10063000080207F087FB4FF4E070ADF800001420CB
:100640008DF8030003208DF802006946044807F086
:10065000C3F84FF4E071024807F06BF908BD0000E1
:10066000002001400EB50121084607F06BFB062172
:10067000022007F0C5F90721022007F0C1F9402048
:10068000019000208DF808000C208DF80900012051
:100690008DF80A0001A809F0E1F98020019001A875
:1006A00009F0DCF917208DF8000003208DF8010017
:1006B00002208DF8020001208DF80300684606F044
:1006C000B6FC0EBD08B50121102007F03BFBC02091
:1006D000ADF8000048208DF803006946374807F060
:1006E0007BF8FFF7BFFF08BD10B5044614B1012029
:1006F0003349087032480078E8B140212F4807F0AC
:10070000FCF820B180212D4807F0F7F898B90A20AD
:1007100006F0B6FB00202A4908704021274807F060
:10072000ECF808B9012010BD8021244807F0E5F855
:1007300078B90220F7E74021204807F0DEF80128C9
:1007400007D180211D4807F0D8F8012801D11C49A4
:1007500008700020E7E710B5402009F0E5F998B1EE
:100760000A2006F08DFB4021144807F0C6F838B97E
:100770001448006808B9012000E000201149086011
:100780004FF0400009F0E1F9802009F0CDF998B16F
:100790000A2006F075FB8021084807F0AEF840B942
:1007A0000948006818F0C4FB18B10748006817F042
:1007B00007FF802009F0C9F910BD000000100140BA
:1007C00018000020A0012442F4000020F84908800D
:1007D0007047F749891C08807047F548801C0088DD
:1007E0007047F34A1080921C1180704710B5044680
:1007F0002046FFF7EBFF052006F01FFBFFF7EDFF9C
:1008000010BDEC48C079EA4908807047E849891C66
:100810000880704730B5014601F01F04C1F345134D
:10082000CA0AE50205EB43151544A8B230BD00BF66
:100830000100A0F10102D0B2FAD1704710B5034611
:100840000C46DC488088A0F51341413905D0D948D1
:100850008088A0F5D041043914D1D649087AFFF731
:10086000B5FF1812FFF7B5FFD8B2FFF7B2FFD149B5
:10087000487AFFF7ABFF2012FFF7ABFFE0B2FFF7BC
:10088000A8FF12E0CB488079012804D1C94800882C
:10089000401EC01A83B2C749087A1946FFF7A1FF64
:1008A000C449487A2146FFF79CFF10BD2DE9F0416D
:1008B00005460E4600240027A046BE480088A842F0
:1008C00003DDBC484088B04202DC0020BDE8F08176
:1008D00031462846FFF7B2FFB6488088A0F513419D
:1008E000413905D0B3488088A0F5D041043903D1FF
:1008F0002E20FFF76BFF02E02220FFF767FFAD48D5
:100900008088A0F51341203902D10220FFF78FFF24
:10091000A748801C008800B100240220FFF787FF51
:10092000A348801C0488A3488088A0F5134141395E
:100930000CD10220FFF77BFF9D48801CB0F800809F
:10094000E7B24FF6FF7000EA072708E09948808871
:10095000A0F5D041043902D19548801C04889548FF
:100960008088A0F51341253917D092488088A0F5DA
:100970008A41353911D08F488088A0F58A413139B4
:100980000BD08C488088A0F50941893905D0894869
:100990008088A0F53541053901D1204696E7854884
:1009A0008088A0F51341413907D1E012C002B91285
:1009B00040EA411040EAE82088E72046FFF72AFF96
:1009C00084E700B57B488088A0F51341413905D004
:1009D00078488088A0F5D041043903D12920FFF759
:1009E000F5FE04E040F273110720FFF7FAFE00BDA8
:1009F00000B570488088A0F51341413905D06D4895
:100A00008088A0F5D041043903D12820FFF7DEFE0D
:100A100003E000210720FFF7E4FE00BDF0B5054626
:100A2000002400276348807901281ED1614880880E
:100A3000A0F5D041043918D0082D15D2DFE805F013
:100A40000406080A0C0E101206250DE007250BE01F
:100A5000042509E0052507E0012505E0002503E060
:100A6000032501E0022500BF00BF52488088A0F5A1
:100A70001341413905D04F488088A0F5D041043951
:100A80007CD1082D1CD2DFE805F00406090C0F12FA
:100A9000151800BF14E044F0800411E044F0400455
:100AA0000EE044F0C0040BE044F0200408E044F001
:100AB000600405E044F0A00402E044F0E00400BF5C
:100AC00000BF362744F008043A488088A0F5D0419A
:100AD000043901D144F0020421463846FFF781FE73
:100AE00014F0200F0DD033480088324949888842DD
:100AF00014DA3048068840882E4908800846468027
:100B00000CE02C4800882B494988884206DD29489A
:100B10000688408827490880084646802549087A83
:100B2000FFF754FE0020FFF754FE0020FFF751FEB0
:100B300020490988491EC1F30F20FFF74AFE1D49CD
:100B40000978491EC8B2FFF744FE1A49487AFFF7F0
:100B50003DFE0020FFF73DFE0020FFF73AFE15495D
:100B60004988491EC1F30F20FFF733FE11498978E8
:100B7000491EC8B2FFF72DFE37E0FFE7082D21D24E
:100B8000DFE805F004070A0D0F121A1D44F03004C7
:100B900018E044F0100415E044F0200412E000BF17
:100BA00010E044F038040DE044F028040AE00000AE
:100BB000FE07006CFC08002044F0180402E044F03A
:100BC000080400BF00BFFE488088A0F509418939AC
:100BD00004D1112746F24000044302E0032744F405
:100BE000805421463846FFF7FCFDF0BD30B5044681
:100BF0000D4629462046FFF721FEFFF702FEF14889
:100C00000088F149088030BD30B503460C461546D2
:100C1000EB488088A0F51341413905D0E848808829
:100C2000A0F5D041043914D1E549087AFFF7CEFD8B
:100C30001812FFF7CEFDD8B2FFF7CBFDE049487A96
:100C4000FFF7C4FD2012FFF7C4FDE0B2FFF7C1FDBE
:100C500012E0DB488079012804D1D9480088401E81
:100C6000C01A83B2D649087A1946FFF7BAFDD449AB
:100C7000487A2146FFF7B5FDD148C079D249891E8F
:100C80000880881C058030BD10B50446002C3DD17D
:100C9000CB498871F02008804FF4A0704880084646
:100CA0008088A0F51341413905D0C5488088A0F55A
:100CB000D041043914D12C20C149C8712A200872AE
:100CC0002B20487208468088A0F5D04104394ED1C7
:100CD0004FF4A070BA4908804FF4F070488046E0A5
:100CE000B7488088A0F50941893907D12220B44945
:100CF000C8714E2008724F20487238E02220B04957
:100D0000C871202008722120487230E0AC488088E9
:100D1000A0F5D04104392AD00120A94988714FF4A7
:100D2000A0700880F020488008468088A0F5134114
:100D3000413907D12C20A249C8712A2008722B20E2
:100D4000487214E09E488088A0F50941893907D18E
:100D500022209B49C8714F2008724E20487206E03D
:100D600022209749C8712120087220204872002053
:100D7000FFF754FE10BD70B5044600269048058864
:100D80004088454300210846FFF758FDFFF739FD2D
:100D900000BF02E08C480480761CAE42FAD370BDDE
:100DA00000B59FB00121080206F0BFFF012140F20B
:100DB000E91006F0C7FF4FF48060ADF8780010200E
:100DC0008DF87B0003208DF87A001EA97F4806F07D
:100DD00003FD4CF23370ADF8780018208DF87B00DD
:100DE00003208DF87A001EA9794806F0F5FC4FF62D
:100DF0008070ADF8780018208DF87B0003208DF806
:100E00007A001EA9734806F0E7FC41F20100ADF834
:100E1000780018208DF87B0003208DF87A001EA939
:100E20006D4806F0D9FC01200890002009900F20A1
:100E30000A9000200B900C900D900E900190029063
:100E40000320039000200490059006900790062050
:100E50000F900020109011901020129000201390FD
:100E600015901490169017904FF480501890002011
:100E700019904FF480401A9000201B9008A81C90F5
:100E800001A81D900FA806F08AF90121062006F09E
:100E9000E7FA322005F0F4FF01210020FFF7A1FC62
:100EA000322005F0EDFF0020FFF7A0FC44498880C8
:100EB00008468088FF280ADB08468088A0F57F4125
:100EC000FF3904D03E488088B0F5134F4BD1D32072
:100ED000FFF77CFCFFF781FCFFF77FFCFFF77DFC51
:100EE00037498880084680884FF6FF7101EA002064
:100EF00033498880FFF771FC3149898808433049BC
:100F0000888008468088A0F5134141391BD0BF2056
:100F1000FFF75CFCFFF761FCFFF75FFCFFF75DFC90
:100F2000FFF75BFC26498880084680884FF6FF71F2
:100F300001EA002022498880FFF74FFC2049898878
:100F400008431F4988801E488088A0F51341413915
:100F500009D01B488088A0F5D041043903D049F25C
:100F6000413017498880164881881CA00CF056FC37
:100F700013488088A0F5134141397DD1CF20FFF778
:100F800025FC0020FFF725FCC120FFF722FC3020C4
:100F9000FFF71FFCED20FFF719FC6420FFF719FC99
:100FA0000320FFF716FC1220FFF713FC8120FFF748
:100FB00010FCE820FFF70AFC8520FFF70AFC15E08B
:100FC000FC0800201A0000200008006C001C0140F2
:100FD000001401400018014000200140204C43440F
:100FE0002049443A25780D0A000000001020FFF740
:100FF000F0FB7A20FFF7EDFBCB20FFF7E7FB392072
:10100000FFF7E7FB2C20FFF7E4FB0020FFF7E1FBF5
:101010003420FFF7DEFB0220FFF7DBFBF720FFF7B2
:10102000D5FB2020FFF7D5FBEA20FFF7CFFB002000
:10103000FFF7CFFB0020FFF7CCFBC020FFF7C6FB7C
:101040001B20FFF7C6FBC120FFF7C0FB0120FFF705
:10105000C0FBC520FFF7BAFB3020FFF7BAFB3020FA
:10106000FFF7B7FBC720FFF7B1FBB720FFF7B1FBD6
:101070003620FFF7ABFB00E0AFE04820FFF7A9FB0D
:101080003A20FFF7A3FB5520FFF7A3FBB120FFF7A2
:101090009DFB0020FFF79DFB1A20FFF79AFBB6206F
:1010A000FFF794FB0A20FFF794FBA220FFF791FBC8
:1010B000F220FFF78BFB0020FFF78BFB2620FFF7CA
:1010C00085FB0120FFF785FBE020FFF77FFB0F206A
:1010D000FFF77FFB2A20FFF77CFB2820FFF779FB37
:1010E0000820FFF776FB0E20FFF773FB0820FFF7C1
:1010F00070FB5420FFF76DFBA920FFF76AFB43202C
:10110000FFF767FB0A20FFF764FB0F20FFF761FB87
:101110000020FFF75EFB0020FFF75BFB0020FFF7DE
:1011200058FB0020FFF755FBE120FFF74FFB0020A5
:10113000FFF74FFB1520FFF74CFB1720FFF749FB8C
:101140000720FFF746FB1120FFF743FB0620FFF7C0
:1011500040FB2B20FFF73DFB5620FFF73AFB3C20DE
:10116000FFF737FB0520FFF734FB1020FFF731FBBB
:101170000F20FFF72EFB3F20FFF72BFB3F20FFF751
:1011800028FB0F20FFF725FB2B20FFF71FFB00207C
:10119000FFF71FFB0020FFF71CFB0120FFF719FBE7
:1011A0003F20FFF716FB2A20FFF710FB0020FFF778
:1011B00010FB0020FFF70DFB0020FFF70AFBEF20DC
:1011C000FFF707FB1120FFF701FB782005F058FE21
:1011D0002920FFF7FBFA01F00FBAFE488088A0F53E
:1011E000D04104397ED11120FFF7F0FA142005F028
:1011F00047FED020FFF7EAFA0720FFF7EAFA42207D
:10120000FFF7E7FA1D20FFF7E4FAD120FFF7DEFA37
:101210000020FFF7DEFA1A20FFF7DBFA0920FFF7BC
:10122000D8FAD220FFF7D2FA0120FFF7D2FA222013
:10123000FFF7CFFAC020FFF7C9FA1020FFF7C9FA6D
:101240003B20FFF7C6FA0020FFF7C3FA0220FFF7A2
:10125000C0FA1120FFF7BDFAC520FFF7B7FA032047
:10126000FFF7B7FAC820FFF7B1FA0020FFF7B1FA8D
:101270002520FFF7AEFA2120FFF7ABFA0520FFF794
:10128000A8FA0020FFF7A5FA0A20FFF7A2FA6520C6
:10129000FFF79FFA2520FFF79CFA7720FFF799FACE
:1012A0005020FFF796FA0F20FFF793FA0020FFF780
:1012B00090FAF820FFF78AFA0120FFF78AFAFE2059
:1012C000FFF784FA0020FFF784FA0220FFF781FA83
:1012D0002020FFF77BFA3620FFF778FA0820FFF787
:1012E00078FA00E02AE03A20FFF770FA5520FFF77D
:1012F00070FA2B20FFF76AFA0020FFF76AFA002045
:10130000FFF767FA0120FFF764FA3F20FFF761FA61
:101310002A20FFF75BFA0020FFF75BFA0020FFF7B7
:1013200058FA0120FFF755FADF20FFF752FA78202C
:1013300005F0A6FD2920FFF749FA4CE7A54880886B
:10134000A0F5134125397DD147F6F001E520FFF7DF
:1013500048FA4FF480710120FFF743FA4FF4E0613F
:101360000220FFF73EFA41F230010320FFF739FA7D
:1013700000210420FFF735FA40F202210820FFF790
:1013800030FA00210920FFF72CFA00210A20FFF78C
:1013900028FA00210C20FFF724FA00210D20FFF786
:1013A00020FA00210F20FFF71CFA00211020FFF780
:1013B00018FA07211120FFF714FA00211220FFF775
:1013C00010FA00211320FFF70CFA00210720FFF785
:1013D00008FA41F290611020FFF703FA40F227214A
:1013E0001120FFF7FEF99D211220FFF7FAF94FF4C3
:1013F000C8511320FFF7F5F925212920FFF7F1F94E
:101400000D212B20FFF7EDF907213020FFF7E9F937
:1014100040F203313120FFF7E4F903213220FFF7D6
:10142000E0F940F206213520FFF7DBF908213620EC
:10143000FFF7D7F940F206413720FFF7D2F94FF412
:10144000417100E058E03820FFF7CBF9072139203F
:10145000FFF7C7F940F202613C20FFF7C2F908210B
:101460003D20FFF7BEF900215020FFF7BAF9EF2128
:101470005120FFF7B6F900215220FFF7B2F940F2F0
:101480003F115320FFF7ADF94FF427416020FFF7DC
:10149000A8F901216120FFF7A4F900216A20FFF7D4
:1014A000A0F900218020FFF79CF900218120FFF79F
:1014B00098F900218220FFF794F900218320FFF79B
:1014C00090F900218420FFF78CF900218520FFF797
:1014D00088F910219020FFF784F94FF4C061922021
:1014E000FFF77FF940F233110720FFF77AF9222145
:1014F0000020FFF776F96EE636488088A0F51341A4
:10150000283969D141F28F01EC20FFF76AF941F2E5
:101510003421EF20FFF765F94FF480710120FFF7C8
:1015200060F94FF4E0610220FFF75BF941F230010E
:101530000320FFF756F900210420FFF752F940F28B
:1015400002210820FFF74DF900210920FFF749F992
:1015500000210A20FFF745F901210C20FFF741F98E
:1015600000210D20FFF73DF900210F20FFF739F989
:1015700000211020FFF735F907211120FFF731F97D
:1015800000211220FFF72DF900211320FFF729F980
:1015900001210720FFF725F9322005F071FC41F207
:1015A00090411020FFF71DF940F227211120FFF78D
:1015B00018F9322005F064FC8A211220FFF711F996
:1015C000322005F05DFC4FF4D0511320FFF709F9EC
:1015D000062102E0FC0800208BE02920FFF701F93A
:1015E0000D212B20FFF7FDF8322005F049FC0021EA
:1015F0002020FFF7F6F800212120FFF7F2F8322033
:1016000005F03EFC00213020FFF7EBF840F20461CA
:101610003120FFF7E6F840F205313220FFF7E1F81C
:1016200000213520FFF7DDF840F609413620FFF7AD
:10163000D8F84FF401713720FFF7D3F840F20131A9
:101640003820FFF7CEF840F207713920FFF7C9F8CC
:1016500000213C20FFF7C5F840F60A213D20FFF7A6
:10166000C0F8322005F00CFC00215020FFF7B9F83B
:10167000EF215120FFF7B5F800215220FFF7B1F814
:1016800040F23F115320FFF7ACF84FF427416020A0
:10169000FFF7A7F801216120FFF7A3F800216A20D6
:1016A000FFF79FF800218020FFF79BF800218120A1
:1016B000FFF797F800218220FFF793F8002183209D
:1016C000FFF78FF800218420FFF78BF80021852099
:1016D000FFF787F810219020FFF783F84FF4C061DF
:1016E0009220FFF77EF840F233110720FFF779F8D8
:1016F00071E5FE488088A0F5134120397ED1084667
:10170000FFF76FF84FF480710120FFF76AF84FF48C
:10171000E0610220FFF765F841F230010320FFF796
:1017200060F800210420FFF75CF840F20221082055
:10173000FFF757F800210920FFF753F800210A208E
:10174000FFF74FF801210C20FFF74BF800210D2087
:10175000FFF747F800210F20FFF743F8322005F08C
:101760008FFB40F201110720FFF73BF8322005F014
:1017700087FB4FF486511020FFF733F80721112023
:10178000FFF72FF84FF488711220FFF72AF84FF473
:1017900030611320FFF725F800212920FFF721F8F9
:1017A00044F210012B20FFF71CF800215020FFF716
:1017B00018F8EF215120FFF714F800215220FFF70D
:1017C00010F840F23F115320FFF70BF84FF41C5173
:1017D0006020FFF706F801216120FFF702F80021E1
:1017E0006A20FEF7FEFF00218020FEF7FAFF0021AD
:1017F0008120FEF7F6FF0021822000E02CE0FEF7BA
:10180000F0FF00218320FEF7ECFF00218420FEF78B
:10181000E8FF00218520FEF7E4FF10219020FEF76D
:10182000E0FF00219220FEF7DCFF01219320FEF76C
:10183000D8FF4FF488719520FEF7D3FF0021972041
:10184000FEF7CFFF00219820FEF7CBFF40F2731187
:101850000720FEF7C6FFBEE4A4488088A0F5134128
:1018600031397DD141F21401E720FEF7BAFF4FF480
:1018700080710120FEF7B5FF4FF400710220FEF7E2
:10188000B0FF41F238010320FEF7ABFF40F2022126
:101890000820FEF7A6FF00210920FEF7A2FF002185
:1018A0000A20FEF79EFF00210C20FEF79AFF002180
:1018B0000D20FEF796FF00210F20FEF792FF00217A
:1018C0001020FEF78EFF07211120FEF78AFF00216E
:1018D0001220FEF786FF00211320FEF782FFC820AA
:1018E00005F0CEFA41F290611020FEF77AFF40F247
:1018F00027211120FEF775FF322005F0C1FA0C21D7
:101900001220FEF76EFF322005F0BAFA4FF40061A4
:101910001320FEF766FF11212920FEF762FF0B213D
:101920002B20FEF75EFF322005F0AAFA00212020CE
:10193000FEF757FF40F23F112120FEF752FF002132
:101940003020FEF74EFF4FF483713120FEF749FF40
:1019500000213220FEF745FF4FF40171352000E0F1
:1019600064E0FEF73EFF41F20A613620FEF739FFE0
:1019700040F207713720FEF734FF4FF483713820AF
:10198000FEF72FFF40F207713920FEF72AFF40F2E1
:1019900002413C20FEF725FF40F60F413D20FEF7B7
:1019A00020FF00215020FEF71CFFEF215120FEF701
:1019B00018FF00215220FEF714FF40F23F11532080
:1019C000FEF70FFF4FF41C516020FEF70AFF0121C4
:1019D0006120FEF706FF00216A20FEF702FF0021CA
:1019E0008020FEF7FEFE00218120FEF7FAFE002196
:1019F0008220FEF7F6FE00218320FEF7F2FE002192
:101A00008420FEF7EEFE00218520FEF7EAFE10217D
:101A10009020FEF7E6FE4FF4C0619220FEF7E1FE53
:101A200040F233110720FEF7DCFE86E42F48808861
:101A3000A0F5A84108397DD14FF480710120FEF74F
:101A4000D0FE4FF4E0610220FEF7CBFE41F2300100
:101A50000320FEF7C6FE00210420FEF7C2FE40F27E
:101A600007210820FEF7BDFE00210920FEF7B9FE80
:101A700000210A20FEF7B5FE00210C20FEF7B1FE82
:101A800000210D20FEF7ADFE00210F20FEF7A9FE7C
:101A9000142005F0F5F941F2B0611020FEF7A1FE27
:101AA00001211120FEF79DFE01211720FEF799FE6E
:101AB0004FF49C711220FEF794FE4FF40061132046
:101AC000FEF78FFE09212920FEF78BFE09212A202F
:101AD000FEF787FE0021A420FEF783FE00215020A0
:101AE000FEF77FFEEF21512002E00000FC080020FD
:101AF000FEF777FE00215220FEF773FE40F23F1101
:101B00005320FEF76EFE4FF41C516020FEF769FE75
:101B100001216120FEF765FE00216A20FEF761FECB
:101B200000218020FEF75DFE00218120FEF759FE96
:101B3000002100E028E08220FEF753FE00218320F0
:101B4000FEF74FFE00218420FEF74BFE002185208A
:101B5000FEF747FE13219020FEF743FE002192205E
:101B6000FEF73FFE03219320FEF73BFE4FF4887102
:101B70009520FEF736FE40F273110720FEF731FE86
:101B8000322005F07DF9B6E4FE488088A0F5A85122
:101B900005397DD10720FEF724FE322005F070F9CB
:101BA0004FF48E711220FEF71CFE0121A420FEF7D7
:101BB00018FE0F210820FEF714FE08210A20FEF768
:101BC00010FE08210D20FEF70CFE40F207713020B8
:101BD000FEF707FE07213120FEF703FE40F2036106
:101BE0003220FEF7FEFD4FF4E0613320FEF7F9FDF1
:101BF00040F202213420FEF7F4FD02213520FEF7E9
:101C0000F0FD41F60F713620FEF7EBFD40F2077153
:101C10003720FEF7E6FD00213820FEF7E2FD002127
:101C20003920FEF7DEFD40F207713A20FEF7D9FDBC
:101C300000213B20FEF7D5FD07213C20FEF7D1FD1A
:101C400000213D20FEF7CDFD322005F019F90121DC
:101C50000720FEF7C6FD01211720FEF7C2FD322046
:101C600005F00EF94FF4BD511020FEF7BAFD40F219
:101C700017211120FEF7B5FD4FF48F711220FEF7EA
:101C8000B0FD4FF470611320FEF7ABFD002100E0C2
:101C900094E02A20FEF7A5FD0A212920FEF7A1FDE8
:101CA0004FF49F711220FEF79CFD00215020FEF79B
:101CB00098FDEF215120FEF794FD00215220FEF700
:101CC00090FD40F23F115320FEF78BFD4FF41C5165
:101CD0006020FEF786FD01216120FEF782FD0021D4
:101CE0006A20FEF77EFD00218020FEF77AFD0021AC
:101CF0008120FEF776FD00218220FEF772FD002193
:101D00008320FEF76EFD00218420FEF76AFD00218E
:101D10008520FEF766FD13219020FEF762FD4FF44B
:101D200040719220FEF75DFD05219320FEF759FDDD
:101D300000219520FEF755FD00219720FEF751FD6B
:101D400000219820FEF74DFD4FF480710120FEF731
:101D500048FD4FF4E0610220FEF743FD41F23801F7
:101D60000320FEF73EFD00210420FEF73AFD00218E
:101D70000C20FEF736FD00210F20FEF732FD00217A
:101D80002020FEF72EFD00212120FEF72AFD212133
:101D90000720FEF726FD142005F072F861210720C8
:101DA000FEF71FFD142005F06BF840F273110720B9
:101DB000FEF717FD142005F063F899E47148808858
:101DC000A0F5354105397DD10846FEF70AFD002111
:101DD0000846FEF706FD00210846FEF702FD002139
:101DE0000846FEF7FEFC0121A420FEF7FAFC1420B1
:101DF00005F046F84FF41C516020FEF7F2FC40F26B
:101E000002210820FEF7EDFC4FF405713020FEF7AB
:101E1000E8FC43F215713120FEF7E3FC40F2046167
:101E20003220FEF7DEFC40F616613320FEF7D9FCC7
:101E300042F211213420FEF7D4FC4FF4A851352092
:101E4000FEF7CFFC48F207513620FEF7CAFC41F2FC
:101E500007413720FEF7C5FC41F203413820FEF769
:101E6000C0FC20213920FEF7BCFC1A219020FEF78F
:101E7000B8FC00211020FEF7B4FC07211120FEF76A
:101E8000B0FC00211220FEF7ACFC00211320FEF76D
:101E9000A8FC142004F0F4FF4FF4E6611020FEF7D4
:101EA000A0FC40F237111120FEF79BFC142004F037
:101EB000E7FF4FF4DC711220FEF793FC142004F0CE
:101EC000DFFF00E086E04FF470611320FEF789FC2D
:101ED00080212A20FEF785FC48212920FEF781FC7D
:101EE000142004F0CDFF4FF480710120FEF779FC3F
:101EF0004FF4E0610220FEF774FC41F23801032048
:101F0000FEF76FFC40F202210820FEF76AFC002178
:101F10000A20FEF766FC00210C20FEF762FC00217F
:101F20000D20FEF75EFC30210E20FEF75AFC00214A
:101F30005020FEF756FCEF215120FEF752FC002105
:101F40005220FEF74EFC40F23F115320FEF749FCB1
:101F50004FF41C516020FEF744FC01216120FEF784
:101F600040FC00216A20FEF73CFC11219020FEF786
:101F700038FC4FF4C0619220FEF733FC40F202417E
:101F8000932001E0FC080020FEF72BFC02219420A6
:101F9000FEF727FC142004F073FF01210720FEF751
:101FA00020FC142004F06CFF61210720FEF719FCCF
:101FB00040F273110720FEF714FC00212020FEF7E9
:101FC00010FC00212120FEF70CFC22210020FEF74E
:101FD00008FC11E3FE488088A0F5454105397DD114
:101FE0000846FEF7FEFB00210846FEF7FAFB142028
:101FF00004F046FF00210846FEF7F3FB00210846E7
:10200000FEF7EFFB00210846FEF7EBFB0021084638
:10201000FEF7E7FB0121A420FEF7E3FB142004F008
:102020002FFF4FF41C516020FEF7DBFB40F606014A
:102030000820FEF7D6FB40F203713020FEF7D1FBFB
:1020400001213120FEF7CDFB04213220FEF7C9FB30
:102050004FF481713320FEF7C4FB4FF440713420FC
:10206000FEF7BFFB40F203113520FEF7BAFB1F213C
:102070003620FEF7B6FB40F203713720FEF7B1FBC6
:1020800001213820FEF7ADFB04213920FEF7A9FB22
:1020900015219020FEF7A5FB4FF482611020FEF77A
:1020A000A0FB40F247211120FEF79BFB4FF4DE71AD
:1020B0001220FEF796FB4FF460611320FEF791FBB0
:1020C000782004F0DDFE4FF480710120FEF789FBDB
:1020D0004FF400710220FEF784FB00E050E041F273
:1020E00030010320FEF77DFB08210A20FEF779FB73
:1020F00000210C20FEF775FB20210E20FEF771FB5E
:1021000000210F20FEF76DFB00212020FEF769FB68
:1021100000212120FEF765FB3D212A20FEF761FB0F
:10212000142004F0ADFE2D212920FEF75AFB0021DA
:102130005020FEF756FB4DF2EF015120FEF751FB08
:1021400000215220FEF74DFB40F23F115320FEF7D5
:1021500048FB00216120FEF744FB00216A20FEF7C6
:1021600040FB4FF440719220FEF73BFB052193208A
:10217000FEF737FB4FF480710720FEF732FB3BE29E
:1021800093488088A0F5094189397DD1012100203B
:10219000FEF727FB4AF6A4010320FEF722FB0021ED
:1021A0000C20FEF71EFB40F60C010D20FEF719FB7C
:1021B0004FF42C510E20FEF714FBB0211E20FEF729
:1021C00010FB42F63F310120FEF70BFB4FF4C061DC
:1021D0000220FEF706FB00211020FEF702FB46F26C
:1021E00078011120FEF7FDFA00210520FEF7F9FA2B
:1021F00000210620FEF7F5FA4EF61C711620FEF7B8
:10220000F0FA03211720FEF7ECFA40F23321072001
:10221000FEF7E7FA00210B20FEF7E3FA00210F207A
:10222000FEF7DFFA00214120FEF7DBFA0021422011
:10223000FEF7D7FA00214820FEF7D3FA40F23F110B
:102240004920FEF7CEFA00214A20FEF7CAFA002103
:102250004B20FEF7C6FA4FF46F414420FEF7C1FA57
:1022600000214520FEF7BDFA40F23F114620FEF75F
:10227000B8FA40F207713020FEF7B3FA4FF401715B
:102280003120FEF7AEFA00E03DE04FF4017132205C
:10229000FEF7A7FA40F202513320FEF7A2FA40F20D
:1022A00007513420FEF79DFA4FF401713520FEF7F7
:1022B00098FA4FF401713620FEF793FA40F202517A
:1022C0003720FEF78EFA40F202313A20FEF789FA03
:1022D00040F202313B20FEF784FA00212320FEF772
:1022E00080FA00212420FEF77CFA4FF400412520DB
:1022F000FEF777FA00214F20FEF773FA00214E20F7
:10230000FEF76FFA78E132488088A0F58A413139CA
:102310005DD101210020FEF764FA0A2004F0B0FD2F
:1023200041F228611020FEF75CFA0E211220FEF720
:1023300058FA40F639211320FEF753FA0A2004F028
:102340009FFD40211120FEF74CFA50211520FEF789
:1023500048FA0A2004F094FD1E211220FEF741FAEB
:102360000A2004F08DFD4FF4B1511020FEF739FA28
:1023700042F639211320FEF734FA0A2004F080FDDA
:102380004FF480710120FEF72CFA4FF440710220C7
:10239000FEF727FA41F238010320FEF722FA40F255
:1023A00002210820FEF71DFA08210A20FEF719FA7B
:1023B00000213020FEF715FA40F202413120FEF7ED
:1023C00010FA4FF483713220FEF70BFA02E05EE060
:1023D000FC08002040F203513320FEF702FA4FF4CC
:1023E00082713420FEF7FDF940F201313520FEF70D
:1023F000F8F940F207713620FEF7F3F940F20531A3
:102400003720FEF7EEF94FF402713820FEF7E9F9B4
:1024100040F60B713920FEF7E4F902214120FEF766
:10242000E0F94FF41C516020FEF7DBF90121612037
:10243000FEF7D7F94FF404719020FEF7D2F94FF46C
:1024400085719220FEF7CDF904219320FEF7C9F99A
:102450004FF48071A020FEF7C4F901210720FEF798
:10246000C0F921210720FEF7BCF923210720FEF740
:10247000B8F933210720FEF7B4F940F233110720F1
:10248000FEF7AFF90021A020FEF7ABF9B4E0FB485E
:102490008088A0F58A413539F8D130211520FEF722
:1024A000A0F910219A20FEF79CF920211120FEF7B7
:1024B00098F943F228411020FEF793F902211220E7
:1024C000FEF78FF941F238011320FEF78AF9282030
:1024D00004F0D6FC12210846FEF783F9282004F008
:1024E000CFFC43F220411020FEF77BF943F2380184
:1024F0001320FEF776F9462004F0C2FC00213020BC
:10250000FEF76FF940F202413120FEF76AF940F21E
:1025100007313220FEF765F94FF441713320FEF7A1
:1025200060F904213420FEF75CF940F201413520C6
:10253000FEF757F940F207713620FEF752F940F2E4
:1025400005313720FEF74DF94FF4C2613820FEF710
:1025500048F94FF4C2613920FEF743F94FF4807116
:102560000120FEF73EF94FF440710220FEF739F9E1
:1025700041F230010320FEF734F940F6080108204B
:10258000FEF72FF908210A20FEF72BF94FF41C5112
:102590006020FEF726F901216120FEF722F94FF4B1
:1025A0009F719020FEF71DF94FF480719220FEF785
:1025B00018F94FF480719320FEF713F94FF440514E
:1025C000A020FEF70EF91021A320FEF70AF9012141
:1025D0000720FEF706F921210720FEF702F9232143
:1025E0000720FEF7FEF833210720FEF7FAF840F245
:1025F00033110720FEF7F5F80020FEF745FB012018
:102600009F4908604FF6FF70FEF7B5FB1FB000BD95
:102610002DE9F04F05460E4617469846DDF824A0F2
:102620004FF0000B781B401C1FFA80FB344613E070
:1026300021462846FEF702F9FEF7E3F84FF00009BD
:1026400006E05046FEF7C5F809F101001FFA80F9CF
:10265000D945F6DB601C84B24445E9DDBDE8F08F66
:102660002DE9F84F07460D4690469946DDF828B00B
:10267000A8EB0700401C80B20090A9EB0500401CAD
:102680001FFA80FA002415E0281981B23846FEF7B7
:10269000D5F8FEF7B6F8002607E004FB0A603BF821
:1026A000100078490880701C86B200988642F4DBDE
:1026B000601C84B25445E7DBBDE8F88F2DE9FF4F7D
:1026C00084B081468A460020039002900698A0EBD1
:1026D00009050798A0EB0A06CDF80490CDF800A0F4
:1026E000002D01DD012705E00DB9002702E04FF0C4
:1026F000FF376D42002E02DD4FF0010806E016B9EB
:102700004FF0000802E04FF0FF387642B54201DD9D
:102710002C4600E034464FF0000B21E0009A91B2C5
:10272000019A90B2FEF762FA039828440390029847
:10273000304402900398A04205DD0398001B0390EB
:102740000198384401900298A04205DD0298001BD0
:1027500002900098404400900BF101001FFA80FBAA
:10276000601C8345DADD08B0BDE8F08FF0B50446A3
:102770000D4616461F462B46324629462046FFF791
:102780009DFF3B46224629462046FFF797FF3B46E2
:10279000324639462046FFF791FF3B4632462946EE
:1027A0003046FFF78BFFF0BD2DE9F04306460F469C
:1027B0009046002445460320A0EB48093CE07A1BE4
:1027C00091B2321990B2FEF711FA3A1B91B2721916
:1027D00090B2FEF70BFA3A1991B2721990B2FEF765
:1027E00005FA7A1991B2321990B2FEF7FFF97A1907
:1027F00091B2321B90B2FEF7F9F93A1991B2721BFD
:1028000090B2FEF7F3F97A1B91B2321B90B2FEF749
:10281000EDF93A1B91B2721B90B2FEF7E7F9641C16
:10282000B9F1000F03DAA000801D814404E0601BB1
:1028300080000A3081446D1EAC42C0DDBDE8F083EB
:102840002DE9F84F05460F4690461E4600970E4864
:10285000B0F80090A8F1200000F0FF080A980028C6
:1028600059D1002454E00C2E12D108EB480007493E
:1028700001EB800010F804A00FE00000FC0800202D
:10288000A88123420008006C1A000020D2640208CC
:10289000B94800EB081010F804A04FF0000B31E02D
:1028A0001AF0800F03D0B548A0F8009003E0B448B8
:1028B0000088B249088039462846FEF797F94FEA62
:1028C0004A604FEA106A781C87B2AE480088A84276
:1028D00004DCAA48A0F80090BDE8F88F0098381AE8
:1028E000B0420BD1009F681C85B2A6480088A84260
:1028F00003DCA248A0F80090EEE706E00BF101002F
:1029000000F0FF0BBBF1080FCADB00BF601CC4B2B4
:10291000B442A8DB44E0002440E00C2E07D108EBD1
:102920004800994901EB800010F804A004E09248A7
:1029300000EB081010F804A04FF0000B28E01AF08C
:10294000800F03D039462846FEF750F94FEA4A6017
:102950004FEA106A781C87B28A484088A84203DC94
:102960008648A0F80090B7E70098381AB0420BD11B
:10297000009F681C85B283480088A84203DC7F481A
:10298000A0F80090A8E706E00BF1010000F0FF0BB3
:10299000BBF1080FD3DB00BF601CC4B2B442BCDB88
:1029A0007648A0F8009000BF96E710B502460120D7
:1029B00000E050430B00A1F10104E1B2F9D110BDD8
:1029C0002DE9FF4F81B0074691461E460E9D4FF000
:1029D000000A002439E0301B401EC1B20A20FFF774
:1029E000E4FFB9FBF0F00A21B0FBF1F201FB1208A1
:1029F000BAF1000F16D1701EA04213DDB8F1000F1E
:102A00000ED10020AB4605EBDB71491001FB0471D0
:102A1000009088B22B4620220299FFF711FF12E0A6
:102A20004FF0010A0020AB4605EBDB71491001FBBA
:102A30000471009088B208F13001CAB22B460299A5
:102A4000FFF7FEFE00BF601CC4B2B442C3DB05B09A
:102A5000BDE8F08F2DE9FF4F82B0064692461F4633
:102A6000DDE90F480020019000254DE0781B401E55
:102A7000C1B20A20FFF799FFBAFBF0F00A21B0FBC0
:102A8000F1F201FB1209019850BB781EA84227DD24
:102A9000B9F1000F22D118F0800F0FD008F001001B
:102AA000A34604EBDB71491001FB0561009088B27D
:102AB000234630220399FFF7C3FE0EE008F0010021
:102AC000A34604EBDB71491001FB0561009088B25D
:102AD000234620220399FFF7B3FE13E00120019063
:102AE00008F00100A34604EBDB71491001FB05610E
:102AF000009088B209F13001CAB223460399FFF76A
:102B00009FFE00BF681CC5B2BD42AFDB06B0BDE88A
:102B1000F08F2DE9F84704460D4690469946DDE9C9
:102B2000096704F0FF0A08EB04001FFA80F809EBBC
:102B300005001FFA80F916E0444502DB5446A81947
:102B400085B24D4500DB14E0002000903A78334612
:102B500029462046FFF774FE304606EBD07104EBA1
:102B600061018CB27F1C38787E2802DC38782028FE
:102B7000E2DA00BFBDE8F887466902081A000020C3
:102B80001C000020FC080020D264020800B597B0A9
:102B900001214FF4F07005F0D5F80121080205F08D
:102BA000C4F84FF63370ADF8000018208DF803001C
:102BB00003208DF802006946364804F00DFE4FF6FA
:102BC0008370ADF800006946334804F005FE4FF20B
:102BD0003F00ADF800006946304804F0FDFD40F2CA
:102BE0003F40ADF8000069462D4804F0F5FD002097
:102BF000019002900320039000200490059006901D
:102C0000079004200890002009900A9010200B9053
:102C100000200C900E900D900F9010904FF480506B
:102C20001190002012901390149001A81590169006
:102C300008A804F0B4FA0121042004F011FC17B034
:102C400000BD10B506E004784FF0D0435C54891CF9
:102C5000401C521E002AF6D110BD06E04FF0D043B2
:102C60005B5C00F8013B891C521E002AF6D17047BC
:102C700013B50C46012221466846FFF7E2FF1CBD52
:102C800018B50446012221466846FFF7E6FF9DF885
:102C9000000018BD0014014000180140001C014054
:102CA0000020014000BF5F49098811F0400FFAD0B1
:102CB0005C49091D0880704700B50246002304E006
:102CC000D05CFFF7EFFF581C83B2D05C0028F7D12F
:102CD000104600BD10B586B004460121082005F05D
:102CE00031F80121880405F03AF84E4805F092F8D1
:102CF0004FF48060ADF8140003208DF81600182002
:102D00008DF8170005A9484804F066FD4FF40060EF
:102D1000ADF8140004208DF8170005A9424804F00E
:102D20005BFD01940020ADF80800ADF80A00ADF895
:102D30000C00ADF810000C20ADF80E0001A93948C8
:102D400005F0ABF8012240F22551364805F03DF977
:102D50000121344805F02DF927208DF800000120CD
:102D60008DF8010003208DF8020001208DF803008A
:102D7000684604F05CF906B010BD08B501210820D2
:102D800004F0E0FF2020ADF8000004208DF80300DF
:102D900003208DF802006946234804F01DFD4FF41E
:102DA0008070ADF8000010208DF8030003208DF82E
:102DB000020069461C4804F00FFD4FF480711A4868
:102DC00004F0B7FD4FF40070ADF8000014208DF84A
:102DD000030003208DF802006946134804F0FCFC50
:102DE0004FF40071104804F0A2FD1048006850B97B
:102DF00001200F49086040F2DC5004F041F8002047
:102E00000C49C1F8A0014FF41650FFF763FF0AA068
:102E1000FFF752FF08A0FFF74FFF4FF4FA7004F0DE
:102E20002FF808BD00480040000C014014812142E9
:102E3000A08121420080214241540D0A000000007F
:102E40007FB505460C460121022004F088FFADF84D
:102E50000850ADF804400020ADF80A00ADF80600B7
:102E600001A90E4805F0AEFA1D208DF800000320E0
:102E70008DF8010000208DF8020001208DF803007C
:102E8000684604F0D4F801221146044805F011FE0A
:102E90000121024805F0F2FD7FBD00000004004062
:102EA000002100BF19E010F0800F03D00122FE4B7B
:102EB0001A6002E00022FC4B1A604FEA40624FEABF
:102EC00012604FF00002F94B1A604FF00102F84B0C
:102ED000C3F8A42101F10102D1B20829E3DB704754
:102EE00070B50646002500240020F0490860F0492E
:102EF000C1F8A001EF4908603046FFF7D1FF062076
:102F000004F050F80020EA49C1F8A401012004F0BF
:102F100049F80120E54908604FF00000E449C1F894
:102F2000A40100BF12E04FF6FF7000EA4404002045
:102F3000DE4908604FF00100DD49C1F8A401DE4818
:102F4000006808B1601C84B2681CC5B2102DEADBB1
:102F500024110120D7490860204670BD2DE9FE43A9
:102F600080460027002406E04046FFF7B9FF2DF811
:102F70001400601C84B2052CF6DB002416E0601CF3
:102F800085B20FE03DF814003DF81510884207DDCA
:102F90003DF814603DF815002DF814002DF815606B
:102FA000681C85B2052DEDDB601C84B2042CE6DBC9
:102FB0000027012405E03DF81400384487B2601C66
:102FC00084B2042CF7DB032097FBF0F086B2304686
:102FD000BDE8FE832DE9F04104460D46B748007870
:102FE000FFF7BCFF0646B6480078FFF7B7FF074675
:102FF00026802F800120BDE8F0817FB504460D4674
:1030000002A903A8FFF7E6FF064616B9002004B0A0
:1030100070BD694601A8FFF7DDFF06460EB9002026
:10302000F5E7BDF80400BDF80C10884206DCBDF8D9
:103030000C10BDF80400323081420CDBBDF80C00EE
:10304000BDF80410884236DCBDF80410BDF80C0051
:10305000323081422FDABDF80000BDF808108842F6
:1030600006DCBDF80810BDF80000323081420CDBF0
:10307000BDF80800BDF8001088421CDCBDF8001047
:10308000BDF808003230814215DABDF80C10BDF8E9
:103090000420881800EBD071C1F34F012180BDF8E6
:1030A0000810BDF80020881800EBD071C1F34F0163
:1030B00029800120ABE70020A9E770B5044620462F
:1030C000FFF74CFF05462046FFF748FF0646A919C3
:1030D00001EBD170C0F34F0070BD70B504460D46D2
:1030E00016467848068004F10D018AB2193988B273
:1030F0002B462946FFF7E2FA05F10D0083B2193895
:1031000081B222462046FFF7D9FA6A1C91B2621CAE
:1031100090B2FDF76BFD6A1C91B2621E90B2FDF792
:1031200065FD6A1E91B2621C90B2FDF75FFD6A1EDA
:1031300091B2621E90B2FDF759FD06222946204643
:10314000FFF732FB70BD70B504460D4616465D486C
:10315000068029462046FDF749FD611C88B22946B4
:10316000FDF744FD681C81B22046FDF73FFD6A1C57
:1031700091B2621C90B2FDF739FD70BD2DE9F041AE
:10318000044651480068002853D124B14F49881E95
:10319000FFF733FF3CE04D49881EFFF72EFFB8B321
:1031A0004A491239B1F9200022F036FF0746474953
:1031B0001239088A22F048FF804644481238816953
:1031C000404622F089FF0646394622F0B9FD054601
:1031D00022F002FF3D4912390882B1F9220022F0A3
:1031E0001BFF074639491239488A22F02DFF8046D5
:1031F00036481238C169404622F06EFF064639460D
:1032000022F09EFD054622F0E7FE30491239488241
:103210002E481238007D10F0800F22D1C0202B499B
:10322000123908750846008A88810846408AC88194
:1032300017E026481238007D10F0800F08D0234890
:103240001238007D20F0800020491239087508E00E
:1032500000201E4912398881C8814FF6FF7008820C
:1032600048821A481238007D00F08000BDE8F081E5
:1032700070B5164912398869154922F02DFF0546A7
:1032800022F08EFE044604222146282000F014FE7F
:103290000E491239C8690E4922F01EFF054622F078
:1032A0007FFE0446042215E0A0812342A48123422C
:1032B00000802342988123421C8123424800002041
:1032C000490000201A00002008012242320000209C
:1032D00020BCBE4C21462C2000F0EEFDFC48B0F98D
:1032E00020100222302000F0E7FDF948B0F922104A
:1032F0000222322000F0E0FDF54890F8241034203E
:1033000000F0B2FD0A242146352000F0ADFD70BD6D
:1033100070B5352000F07CFD04460A2C42D1042112
:10332000282000F0DEFD0446204622F075FE05460A
:10333000E84922F073FDE649886104212C2000F061
:10334000D0FD0446204622F067FE0546E14922F002
:1033500065FDDF49C8610221302000F0C2FD00B2E6
:10336000DB4908840221322000F0BBFD00B2D849BD
:103370004884342000F04CFDD54981F824000846EB
:1033800090F8240030B19020D3490870D020D34960
:10339000087005E0D020D04908709020CF4908700F
:1033A000012070BD0020FCE72DE9FC5F04460D46BE
:1033B00017461E46DDE90EABDDE90C894FF4784077
:1033C000C7490880C7A01021CDE90010C64843882E
:1033D0000288A0212820FFF79CFBC4A01021CDE982
:1033E0000010C14843880288A0217820FFF791FB94
:1033F000BFA01021CDE90010BB4843880288B4214A
:103400002820FFF786FBBBA01021CDE90010B648AD
:1034100043880288B4217820FFF77BFBB6A01021F7
:10342000CDE90010B04843880288C8212820FFF762
:1034300070FBB2A01021CDE90010AB484388028890
:10344000C8217820FFF765FBADA01021CDE9001061
:10345000A54843880288DC212820FFF75AFBA9A051
:103460001021CDE90010A04843880288DC21782093
:10347000FFF74FFBA4A01021CDE900109A48438824
:103480000288F0212820FFF744FB10200423224665
:10349000A02100904020FFF793FA102004232A4631
:1034A000A02100909020FFF78BFA102004233A46C9
:1034B000B42100904020FFF783FA10200423324605
:1034C000B42100909020FFF77BFA1020042342469D
:1034D000C82100904020FFF773FA102004234A46C9
:1034E000C82100909020FFF76BFA10200423524669
:1034F000DC2100904020FFF763FA102004235A4695
:10350000DC2100909020FFF75BFA102000907648B5
:10351000018803236020109AFFF752FABDE8FC9F50
:1035200000B595B0002010900A9010901F206C49B3
:1035300008804FF6FF7076490880FDF71CFC4FF4B9
:103540007840674908804FF6FF70FDF714FC0020B3
:10355000634908806F48006810216423A022CDE9E8
:10356000001028210846FFF7D4FA4FF478421421BE
:103570000846FFF7B2FD0020554908758861DAE377
:103580005348406809900120099988475048007DB8
:1035900000F0C000402878D100200A904C48007DFF
:1035A00020F040004A4908750846018A11AA10987F
:1035B00022F820104648418A109802EB8000418092
:1035C0001098401CC0B210901098012806D0022814
:1035D00015D0032829D0042810D141E04FF6FF72FE
:1035E00014210846FFF779FD3F480088143880B25F
:1035F0004FF4784214210990FFF76FFD8BE33A48AE
:103600000088143880B24FF6FF7214210990FFF73A
:1036100064FD35484088143880B24FF47842014642
:1036200009901420FFF759FD75E32F48408814389E
:1036300080B24FF6FF72014609901420FFF74DFD4E
:1036400029484088143880B20990274800881438E7
:1036500080B24FF4784208900999FFF73EFD5AE393
:10366000BDF84400BDF84810401A099001D40998EB
:1036700001E0099840420D90BDF8461011A8C0889D
:10368000081A099002D4099802E045E309984042DB
:103690000C900D9840430D900C9840430C90DDE940
:1036A0000C100844059022F0B5F8CDE9060121F090
:1036B00068FFCDE9080122F069F880B20F90BDF8EB
:1036C0004C00BDF85010401A099025D4099825E007
:1036D0002000002020BCBE4C4800002049000020F3
:1036E0001A00002078313A00FC08002079313A00B5
:1036F00078323A0079323A0078333A0079333A0036
:1037000078343A0079343A006661632069733A008C
:103710001C0000204C000020099840420D9011A888
:103720004189C089081A099001D4099801E00998D3
:1037300040420C900D9840430D900C9840430C90E3
:10374000DDE90C100844059022F064F8CDE906018B
:1037500021F017FFCDE9080122F018F880B20E9091
:103760000E9822F071FC09900F9822F06DFC0890E1
:10377000099922F053FB0B900B9822F0B5FA4FF009
:103780006632FE4BCDE9080122F058F80DD30B98B4
:1037900022F0AAFAFA4AFB4BCDE9080122F088F997
:1037A00003D30F9808B10E98E8BB00201090F6489C
:1037B0004088143880B20990F3480088143880B2E9
:1037C0004FF6FF7208900999FFF787FC4FF4784293
:1037D00014210846FFF781FCEC490B9822F07CFC91
:1037E000089022F0F9FB80B211A90990C989BDF8AF
:1037F000502011AB5B89CDE90132CDE90310BDF852
:103800004C00009011A8C0880890BDF848000790AF
:10381000BDF846000690BDF84400059006A90EC903
:10382000FFF7C2FD87E2FFE7BDF84400BDF84C108A
:10383000401A099001D4099801E0099840420D907E
:10384000BDF8461011A84089081A099001D40998BA
:1038500001E0099840420C900D9840430D900C985F
:1038600040430C90DDE90C100844059021F0D2FF94
:10387000CDE9060121F085FECDE9080121F086FFA2
:1038800080B20F90BDF84800BDF85010401A099062
:1038900001D4099801E0099840420D9011A8C1880F
:1038A000C089081A099001D4099801E0099840429A
:1038B0000C900D9840430D900C9840430C90DDE91E
:1038C0000C100844059021F0A5FFCDE9060121F078
:1038D00058FECDE9080121F059FF80B20E900E98F4
:1038E00022F0B2FB09900F9822F0AEFB08900999E4
:1038F00022F094FA0B900B9822F0F6F94FF0663212
:103900009E4BCDE9080121F099FF09D30B9822F0D5
:10391000EBF99B4A9B4BCDE9080122F0C9F83DD257
:103920000020109098484088143880B2099096483A
:103930000088143880B24FF6FF7208900999FFF79B
:10394000CCFB4FF4784214210846FFF7C6FB8F49A1
:103950000B9822F0C1FB089022F03EFB80B211A927
:103960000990C989BDF8502011AB5B89CDE90132BE
:10397000CDE90310BDF84C00009011A8C088089054
:10398000BDF848000790BDF846000690BDF8440019
:10399000059006A90EC9FFF707FDCCE1BDF8480068
:1039A000BDF84C10401A099001D4099801E009981B
:1039B00040420D9011A8C1884089081A099001D48D
:1039C000099801E0099840420C900D9840430D90F1
:1039D0000C9840430C90DDE90C100844059021F050
:1039E00019FFCDE9060121F0CCFDCDE9080121F058
:1039F000CDFE80B20F90BDF84400BDF85010401AC3
:103A0000099001D4099801E0099840420D90BDF851
:103A1000461011A8C089081A099001D4099801E03C
:103A2000099840420C900D9840430D900C984043EB
:103A30000C90DDE90C100844059021F0EBFECDE977
:103A4000060121F09EFDCDE9080121F09FFE80B224
:103A50000E900E9822F0F8FA09900F9822F0F4FADE
:103A60000890099922F0DAF90B900B9822F03CF9B2
:103A70004FF06632414BCDE9080121F0DFFE09D35A
:103A80000B9822F031F93E4A3E4BCDE9080122F075
:103A90000FF83DD2002010903B484088143880B287
:103AA000099039480088143880B24FF6FF720890A8
:103AB0000999FFF712FB4FF4784214210846FFF7EB
:103AC0000CFB32490B9822F007FB089022F084FA95
:103AD00080B211A90990C989BDF8502011AB5B894A
:103AE000CDE90132CDE90310BDF84C00009011A8DA
:103AF000C0880890BDF848000790BDF846000690C1
:103B0000BDF84400059006A90EC9FFF74DFC12E16F
:103B1000BDF84800BDF84410401A079022F07CFA26
:103B20000990194800882838079022F075FA089003
:103B3000099922F073F916498861BDF84800BDF86B
:103B400044100844049022F067FA059010488069F8
:103B500001460490059822F0BFFA07900A480088B1
:103B6000059022F071FA0690079922F0BDFB4FF004
:103B70008041089022F052F909900BE06666EE3F12
:103B8000CDCCCCCCCCCCF03FFC0800200000C8420F
:103B90002000002022F004FA00B28949088411A80C
:103BA0004089BDF84610401A079022F035FA099076
:103BB000844840882838079022F02EFA0890099906
:103BC00022F02CF97E49C86111A84089BDF8461041
:103BD0000844049022F020FA05907948C069014613
:103BE0000490059822F078FA07907648408805906E
:103BF00022F02AFA0690079922F076FB4FF08041D6
:103C0000089022F00BF9099022F0CAF900B26C4931
:103C1000488408468069079022F0C2F9089000287D
:103C200001DB089801E00898404202280DDC644856
:103C3000C069079022F0B4F90990002801DB0998C7
:103C400001E009984042022842DD002010905D48C2
:103C50004088143880B209905A480088143880B2DD
:103C60004FF6FF7208900999FFF737FA4FF4784240
:103C700014210846FFF731FA53A01021CDE90010B6
:103C80005048408809904F480088089002461A2101
:103C90002820099BFEF73DFF494890F8240008B909
:103CA000012000E00020464981F82400084690F8F1
:103CB000240030B1902049490870D020484908704C
:103CC00005E0D0204549087090204549087032E051
:103CD0001F20444908804FF6FF70FDF74CF842A0C2
:103CE0001021CDE9001037484088099035480088F8
:103CF000089002466E212320099BFEF70AFF4FF42D
:103D00007A7003F05EF9FFF7B3FA4FF6FF70FDF734
:103D100032F815B000BD00BF0A2003F052F90A982E
:103D2000401C80B20A900A98B0F57A7F02DDFFF756
:103D3000EFFA01E000BF23E400BF00BFE9E708B5E8
:103D40000121902003F0FEFF4FF45070ADF8000009
:103D500010208DF8030003208DF8020069462848E2
:103D600003F03AFD4FF45071254803F0E0FD802048
:103D7000ADF8000048208DF803006946204803F0A4
:103D80002BFD0420ADF8000069461E4803F024FD19
:103D90000B491231881EFFF71DF900F035F8FFF7C7
:103DA000B7FA08B1002008BD4FF6FF70FCF7E3FF3B
:103DB000FFF7B6FBFFF75CFAFFF7AAFA0120F2E77C
:103DC00020000020FC0800205450204E656564202F
:103DD000726561646A7573742100000048000020F8
:103DE000490000201A000020546F75636820536357
:103DF0007265656E2041646A757374204F4B2100B3
:103E0000001C01400010014010B500F0BBF810BDCF
:103E100070B50446002600F0CCF82546E11704EB07
:103E200011610912A02202EB4101C8B200F075F93C
:103E300000F002F9E11704EB11610912A4EB012172
:103E4000C8B200F06AF900F0F7F800F0B2F8A1206B
:103E500000F063F900F0F0F8002000F094F9064655
:103E600000F0C9F8304670BD70B504460E4600F04B
:103E7000A0F82546E11704EB11610912A02202EB1C
:103E80004101C8B200F049F900F0D6F8E11704EB9F
:103E900011610912A4EB0121C8B200F03EF900F053
:103EA000CBF8304600F039F900F0C6F800F0A3F87E
:103EB0000A2002F0E5FF70BD2DE9F04105460E46EF
:103EC0001746002409E0E20026FA02F2D1B22A19CC
:103ED00090B2FFF7C9FF601CC4B2BC42F3DBBDE87F
:103EE000F0812DE9F04107460C460026002509E047
:103EF00036023919491B491E88B2FFF789FF06446B
:103F0000681CC5B2A542F3DB3046BDE8F08110B5B0
:103F1000FF20FFF77DFF0446552C01D1002010BD86
:103F20005521FF20FFF7A0FFFF20FFF771FF044698
:103F3000552C01D10020F2E70120F0E770B50646CC
:103F40000C46154608E03046721C96B2FFF760FF3B
:103F500004F8010B681E85B2002DF4D170BD70B558
:103F600005460C46164606E021782846FFF77CFFFA
:103F7000681C85B2641C3000A6F101018EB2F3D139
:103F800070BD000008B50121082003F0DBFEC02051
:103F9000ADF8000010208DF8030003208DF802001A
:103FA0006946914803F018FCC0218F4803F0BFFC1C
:103FB00008BD10B58C48006820F070408A49086040
:103FC0000846006840F040500860012087490860BA
:103FD0008749C1F898014FF0040002F02EFF00203D
:103FE000824908604FF0040002F027FF002080495A
:103FF000C1F8980110BD10B57B48006820F07040F2
:10400000794908600846006840F040500860002088
:10401000784908607649C1F89C014FF0040002F02D
:104020000CFF0120734908607149C1F89C014FF0F1
:10403000040002F002FF10BD10B500246A480068B9
:1040400020F07040684908600846006840F0004071
:10405000086001206549086002F0EFFE0120644914
:10406000C1F8980102F0E9FE07E0601CC4B2FA2C26
:1040700003DDFFF7C0FF012010BD5F480068002886
:10408000F3D15C49086000BFF6E710B5002059493C
:1040900008605548006820F07040534908600846A1
:1040A000006840F0405008604FF000005049C1F8EF
:1040B0009C014FF0020002F0C0FE01204D49086053
:1040C0004FF0020002F0B9FE00204949C1F8980102
:1040D00010BD10B50020474908604348006820F033
:1040E0007040414908600846006840F04050086050
:1040F0004FF001003E49C1F89C014FF0020002F070
:104100009CFE01203B4908604FF0020002F095FE42
:1041100000203749C1F8980110BD70B504463248F7
:10412000006820F07040304908600846006840F0A0
:104130004050086000202F490860054620E0E00953
:1041400003D001202949086002E0002027490860C7
:104150004FEA44604FEA10644FF0020002F06DFE37
:104160000120244908604FF0020002F066FE0020A2
:104170001F49C1F89801022002F05FFE681CC5B219
:10418000082DDCDB70BD70B50546002416480068BC
:1041900020F07040144908600846006840F0004074
:1041A0000860002616E00020124908604FF0020067
:1041B00002F043FE01200E49C1F898016006040E8A
:1041C0000D48006808B1601CC4B2012002F035FE41
:1041D000701CC6B2082EE6DB15B9FFF77AFF01E0C6
:1041E000FFF753FF204670BD000C01409C81214227
:1041F00000802142988121421C81214208B5002083
:1042000004F045FF002004F045FF04F015FF0021F5
:104210004FF4806003F089FD4FF4F850ADF80000D2
:1042200004208DF803006946FB4803F0D5FA04200A
:10423000ADF800006946F94803F0CEFA08BD10B5A4
:10424000FFF7DCFF10BD01462A2019B1012901D07A
:10425000022902D1F24A116000E0262070472DE9C0
:10426000F04106462A27EF48456B01E0ED48456BD3
:1042700015F0450FFAD015F0040F06D003270420DF
:1042800004F0A4FF3846BDE8F08115F0010F05D019
:104290000127012004F09AFF3846F4E704F034FFC8
:1042A000B04202D010273846EDE740F2FF5004F04C
:1042B0008DFF002004F02CFF0446DB48044201D1AE
:1042C0003846E0E714F0004F01D01C20DBE714F083
:1042D000804F01D00920D6E714F0005F01D00A20FA
:1042E000D1E714F0805F01D00B20CCE714F0006F11
:1042F00001D00C20C7E714F0806F01D00D20C2E779
:1043000014F0807F01D00E20BDE714F4000F01D01F
:104310000F20B8E714F4800F01D01020B3E714F495
:10432000001F01D01120AEE714F4801F01D012202D
:10433000A9E714F4002F01D01320A4E714F4802F70
:1043400001D014209FE714F4003F01D015209AE714
:1043500014F4803F01D0162095E714F4004F01D0EB
:10436000172090E714F4804F01D018208BE714F445
:10437000005F01D0192086E714F0080F01D01A2041
:1043800081E738467FE72DE9FC4107460D460026C8
:104390002A240020009001900820A44908601020E1
:1043A0004860402088600020C8604FF48060086149
:1043B000084604F08FFE1020FFF751FF04462A2C18
:1043C00002D02046BDE8FC81994800880004974946
:1043D000086037204860402088600020C8604FF4A3
:1043E00080600861084604F075FE3720FFF737FF4C
:1043F00004462A2C01D02046E4E78E488E49086006
:1044000008204860302088600220C86000200861D1
:1044100001204861084604F086FE002083490860B8
:1044200033204860402088600020C8604FF48060DE
:104430000861084604F04EFE3320FFF710FF0446E3
:104440002A2C01D02046BDE709E04FF4001004F00B
:10445000B3FE20B104F089FE4DF82600761C7148A9
:10446000406B40F22A610842EFD0082004F0A4FE1D
:1044700028B1082004F0AAFE04242046A2E7022066
:1044800004F09AFE28B1022004F0A0FE0224204687
:1044900098E7202004F090FE28B1202004F096FE3A
:1044A000062420468EE74FF4007004F085FE30B1FC
:1044B0004FF4007004F08AFE0724204682E740F2A1
:1044C000FF5004F083FE00980006009901F47F413C
:1044D00040EA0120009901F47F0140EA112000998F
:1044E00040EA1160686001980006019901F47F417B
:1044F00040EA0120019901F47F0140EA112001996D
:1045000040EA1160286020465CE77CB505462A2415
:1045100000200090019004F0FBFD10F0007F02D01D
:104520000E2420467CBD4249098888B26946FFF7BF
:104530002AFF04462A2C01D02046F3E7012D37D16B
:10454000019810F4802F30D0394800880004374992
:10455000086037204860402088600020C860A802BA
:104560000861084604F0B6FD3720FFF778FE0446E0
:104570002A2C01D02046D5E702202C4908600620CD
:104580004860402088600020C8604FF48060086167
:10459000084604F09FFD0620FFF761FE04462A2C22
:1045A00001D02046BEE72046BCE725242046B9E7D7
:1045B000019810F4803F43D01D48008800041B4937
:1045C000086037204860402088600020C8604FF4B1
:1045D00080600861084604F07DFD3720FFF73FFE4C
:1045E00004462A2C01D020469CE700200F49086091
:1045F00006204860402088600020C8604FF480603A
:104600000861084604F066FD0620FFF728FE044610
:104610002A2C13D0204685E70010014000140140E9
:10462000580000200080014008E0FFFD90090020B4
:1046300054000020FFFF0F00A4090020204671E76E
:10464000252420466EE770B504462A25F848006800
:10465000032802D12725284670BDF548006838B1E7
:10466000F3480068012803D0F1480068022830D1DF
:10467000B4F5805F02D127252846EDE7B4F5006F39
:1046800015D10120FFF741FF05462A2D21D1022037
:10469000E849087500200860486088604FF40060B1
:1046A000C86000200861084604F0D4FC11E0002036
:1046B000FFF72BFF05462A2D0BD10220DD49087597
:1046C0000020086048608860C8600861084604F0FF
:1046D000C1FC2846C0E770B504462A25D6480460C8
:1046E0000720D5494860402088600020C8604FF40A
:1046F00080600861084604F0EDFC0720FFF7AFFD7D
:104700000546284670BD30B501462A200022C84B18
:104710001B7881F84E30C94B1B88A1F84C30C84B30
:104720001B681A0E93090B70C2F383034B7002F0DF
:1047300003038B70C24B1B68C3F30742CA70C04BA4
:104740001B88C3F307220A71BD4B1A784A715B6854
:104750001A0E1301CB80BA4B5B68C3F30742CB88B8
:1047600043EA1213CB8002F00F030B72B44B9B8809
:10477000C3F30722D3094B72C2F380138B72C2F3C7
:104780004013CB72C2F300130B7300234B73A84B7F
:104790001B681BB1A64B1B68012B3CD193071B0D5B
:1047A0000B61A74B1A790B6943EA82030B61A44B97
:1047B0009B681A0E0B6943EA92130B61C2F3C203A2
:1047C0000B7502F007034B759D4B9B68C3F30742C3
:1047D00053098B75C2F38203CB7593075B0F0B767E
:1047E000974B1B89C3F307220B7E43EAD2130B7648
:1047F0000B695B1C4B640C7E4B6CA41C0125A54013
:104800006B434B640C7A0123A3408B64D1E91134D0
:1048100063434B6421E0864B1B68022B1DD1884B00
:104820001A7993069B0A0B61854B9B681A0E0B69DC
:1048300043EA02230B61824B9B68C3F307420B6977
:1048400013430B617E4B1B89C3F307220B695B1C6F
:10485000DB044B644FF400738B64C2F3801301F8E4
:10486000193F93065B0E4B70754B1A7A4B7843EAEF
:10487000D2134B7002F07F038B70714BDB681A0E02
:10488000D309CB70C2F341130B71C2F382034B7196
:1048900093071B0F8B716A4BDB68C3F307428B795D
:1048A00043EA92138B71C2F34013CB7100230B7256
:1048B00002F001034B72624B9B89C3F30722D309B9
:1048C0008B72C2F38013CB72C2F340130B73C2F32B
:1048D00000134B73C2F381038B7302F00303CB739A
:1048E000574B1A7B53080B7401234B74554B1B68B1
:1048F0001A0ECA74A1F11901524B1B68C3F3074287
:104900004FEA0224CC854F4B1B88C3F30722CB8D83
:1049100043EA0203CB854B4B1A784FEA02640C63DF
:104920005B684FEA13620B6B43EA02440C63454B2E
:104930005B68C3F307420B6B43EA02240C63414BF1
:104940009B88C3F307220B6B43EA02030B633D4BC7
:104950001A794FF034035A543A4B9B684FEA13626A
:104960004FF035035A54374B9B68C3F307424FEA65
:1049700002648C63334B1B89C3F307228B6B43EABE
:1049800002448C632F4B1A7A8B6B43EA02248C63AC
:104990002C4BDB684FEA13628B6B43EA02038B6399
:1049A000284BDB68C3F307424FF03C035B5C43EAF0
:1049B00012144FF03C035C544FEA02734FEA135455
:1049C000CC87204B9B89C3F30722CB8F43EA02039A
:1049D000CB871C4B1A7B4FEA52044FF040035C54C8
:1049E0004FF001044FF041035C5430BD70B52A25EF
:1049F0001548446B01E01448446B14F0450FFAD09D
:104A000014F0040F05D00325042004F0DFFB284632
:104A100070BD14F0010F05D00125012004F0D6FB74
:104A20002846F5E740F2FF5004F0D0FB2846EFE7B8
:104A30005000002078090020900900205400002038
:104A40000809002018090020008001402DE9F041EC
:104A500006460F464FF02A08F648456B01E0F54838
:104A6000456B15F0450FFAD015F0040F07D04FF045
:104A70000308042004F0AAFB4046BDE8F08115F0CD
:104A8000010F06D04FF00108012004F09FFB4046C3
:104A9000F3E704F039FBB04203D04FF01008404672
:104AA000EBE740F2FF5004F091FB002004F030FBF4
:104AB000044614F4604F03D1200C38804046DCE7F4
:104AC00014F4005F01D01320D7E714F4804F01D015
:104AD0001020D2E714F4004F01D00F20CDE740465C
:104AE000CBE738B52A240120009004F0DEFA10B993
:104AF0002524204638BDD0480068042829D000204D
:104B0000CE49086002204860C02088600020C8604C
:104B10004FF480600861084604F0DCFAFFF766FF96
:104B200004462A2C01D02046E4E7002004F0F0FAE5
:104B3000C3490860042004F0EBFAC149486008202A
:104B400004F0E6FABE4988600C2004F0E1FABC49A2
:104B5000C860B948006858B1B7480068012807D054
:104B6000B5480068062803D0B3480068022817D16A
:104B70000020B2490860032048604020886000207F
:104B8000C8604FF480600861084604F0A3FA6946E3
:104B90000320FFF75BFF04462A2C01D02046A9E73B
:104BA000A548006804282FD0BDF80000A54908607A
:104BB000BDF800000004A149086009204860C02039
:104BC00088600020C8604FF480600861084604F0E7
:104BD00081FAFFF70BFF04462A2C01D0204689E713
:104BE000002004F095FA98490860042004F090FA37
:104BF00095494860082004F08BFA934988600C209E
:104C000004F086FA9049C8602A24204672E770B5FD
:104C10002A258848446B01E08648446B14F0450F10
:104C2000FAD014F0040F05D00325042004F0CEFAC6
:104C3000284670BD40F2FF5004F0C8FA2846F8E755
:104C400070B52A264FF480357A48446B02E06D1E19
:104C50007848446B14F0450F01D1002DF7D115B100
:104C600014F0040F05D00326042004F0AFFA3046F8
:104C700070BD14F0400F05D02A26402004F0A6FA9B
:104C80003046F5E73046F3E770B52A254FF4803417
:104C900000E0641E24B1802004F08EFA0028F8D0D1
:104CA00014B90325284670BD40F2FF5004F08EFA77
:104CB0002846F8E72DE9F0412A24002600250027A0
:104CC0004FF00008B2206149087500200860486074
:104CD0008860C8600861084604F0BCF9032004F04D
:104CE000D9F9012004F0D3F9002054490860486044
:104CF0008860C8604FF480600861084604F0EAF9F3
:104D0000FFF7C2FF04462A2C02D02046BDE8F081FE
:104D10004FF4D570494908600820486040208860F9
:104D20000020C8604FF480600861084604F0D2F9A2
:104D3000FFF786FF04462A2C05D101203E49086072
:104D40004FF0804812E000203C490860372048605E
:104D5000402088600020C8604FF4806008610846E9
:104D600004F0B8F93720FFF77AFA044600203349F7
:104D7000086037204860402088600020C8604FF4F9
:104D800080600861084604F0A5F93720FFF767FA4C
:104D900004462A2C4CD138E00020284908603720EE
:104DA0004860402088600020C8604FF4806008613F
:104DB000084604F08FF93720FFF751FA04462A2CF1
:104DC00001D02A20A2E7224848EA00001B490860D7
:104DD00029204860402088600020C8604FF480602F
:104DE0000861084604F076F9FFF711FF04462A2C03
:104DF00001D020468AE7002004F08AF90646012007
:104E000080EAD67080F001076D1C1FB94FF6FF7065
:104E10008542C1D34FF6FF70854202D31B24204642
:104E200074E706F08040060002D0022002490860C4
:104E300020466BE7008001405000002090090020D0
:104E400018090020540000200809002078090020DB
:104E50000000108008B50121302002F073FF4FF4EC
:104E6000F850ADF8000003208DF8020018208DF8EE
:104E700003006946FA4802F0AFFC0420ADF80000D8
:104E80006946F84802F0A8FC8020ADF800004820F0
:104E90008DF803006946F24802F09EFC0121880269
:104EA00002F043FF0121022002F03FFF08BD10B5D0
:104EB0002A24FFF7CFFF04F0BFF8FFF7FBFE0446FC
:104EC0002A2C01D0204610BDFFF70BFE04462A2CE9
:104ED00001D02046F7E70220E3490875002008606A
:104EE00048608860C8600861084604F0B3F82A2C5E
:104EF00003D1DE48FFF707FC04462A2C06D1DB4924
:104F0000B1F84C100804FFF7E6FB04462A2C04D144
:104F10004FF40060FFF797FB04462A2C03D10020D2
:104F2000FFF791F904462046CDE770B504462A25DF
:104F300014B92625284670BDCD4800880004CD4907
:104F400008600D204860402088600020C8604FF451
:104F500080600861084604F0BDF80D20FFF77FF976
:104F600005462A2D01D02846E5E7002004F0D0F8B8
:104F700020602846DFE708B5012000908021B8486E
:104F800002F0BBFC08B1002000909DF8000008BDB5
:104F900008B500200090FFF7EEFF01280AD168460F
:104FA000FFF7C3FF2A2801D0FF2008BD0098C0F3F7
:104FB0004320FAE7FF20F8E710B50424FFF7E8FFE5
:104FC0000446042C01D1002010BDFF2C01D1022089
:104FD000FAE70120F8E710B52A24002004F05AF877
:104FE000204610BD10B5A44804F0FAF910BD30B544
:104FF0008BB005460C46A14804F005FA0021A048F4
:1050000004F0D3F99F480090019500200290A00879
:10501000039000200490802005908000069080007E
:105020000790002008904FF40050099000200A904B
:105030006946934804F08EF90121914804F0B5F9CE
:105040000BB030BD0146002002E04910421CD0B236
:105050000129FAD170472DE9F04706460F4614465C
:105060004FF02A084FF0000935464FF0000A26B9E4
:105070004FF026084046BDE8F0872A208249087094
:10508000002082490860824908608248824908609D
:10509000002048608860C86008614861084604F0E4
:1050A00042F8002004F013F8002004F031F810F06A
:1050B000007F03D04FF00E084046DCE777480068D9
:1050C000022801D104027F0A002C21DDB4F5006F13
:1050D0001EDC601E20421BD12046FFF7B3FF824634
:1050E00064480460102063494860402088600020C4
:1050F000C8604FF480600861084603F0EBFF1020A1
:10510000FFF7ADF88046B8F12A0F05D04046B2E768
:105110004FF026084046AEE75E485F490860084603
:1051200044604FEA0A1088600220C86000200861CD
:1051300001204861084603F0F6FF5548046000204E
:1051400057490860574806604A4807601120494996
:105150004860402088600020C8604FF4806008618B
:10516000084603F0B7FF1120FFF779F88046B8F141
:105170002A0F01D040467EE74B480068022857D1ED
:1051800011E04FF4004004F017F860B14FF000094F
:1051900005E003F0EAFF45F8290009F10109B9F13A
:1051A000080FF6D3203537488038406B40F22A612B
:1051B0000842E6D0082003F0FFFF30B1082004F0D9
:1051C00005F84FF00408404655E7022003F0F4FFCD
:1051D00030B1022003F0FAFF4FF0020840464AE7E0
:1051E000202003F0E9FF30B1202003F0EFFF4FF063
:1051F000060840463FE74FF4007003F0DDFF38B18A
:105200004FF4007003F0E2FF4FF00708404632E72A
:1052100003E003F0AAFF28602D1D4FF4001003F0F7
:10522000CBFF0028F5D140F2FF5003F0CFFF5EE046
:105230001D480068012839D1012148F22A3003F0C5
:1052400039FF00BF1148006818B90F4800782A28B4
:10525000F8D00D4800782A2849D00B4800780AE792
:1052600000100140001401407809002028090020A6
:1052700054000020900900200020001000F00010D1
:105280004404024080800140640000206800002047
:105290005C000020FFFF0F00A40900205000002048
:1052A000600000207400002058000020F7480068CB
:1052B000E8B9012140F22A3003F0FCFE012003F09E
:1052C00006FF21463046FFF792FE00BFFFF78AFE39
:1052D00030B9EF48006818B9EE4800782A28F5D0B0
:1052E000EC4800782A2802D0EA480078C3E6404615
:1052F000C1E62DE9F05F0746894614461D464FF08A
:105300002A084FF0000A3E464FF0000B27B94FF035
:1053100026084046BDE8F09F2A20DE49087000209C
:10532000DB490860DC490860DC48DD490860002092
:1053300048608860C86008614861084603F0F3FE71
:10534000002003F0C4FE002003F0E2FE10F0007F16
:1053500003D04FF00E084046DCE7D2480068022830
:1053600002D104024FEA5929002C21DDB4F5006F67
:105370001EDC601E20421BD12046FFF763FE8346E1
:10538000C94804601020C849486040208860002057
:10539000C8604FF480600861084603F09BFE10204F
:1053A000FEF75DFF8046B8F12A0F05D04046B1E711
:1053B0004FF026084046ADE7012D6FD905FB04F0FC
:1053C000B0F1007F03D34FF026084046A2E705FB6B
:1053D00004F0B14908600120B4490860B44807608E
:1053E000AE48AF49086005FB04F048604FEA0B1077
:1053F00088600220C86000200861012048610846DA
:1054000003F091FEA848C0F800901220A649486019
:10541000402088600020C8604FF480600861084622
:1054200003F058FE1220FEF71AFF8046B8F12A0F4B
:1054300001D040466EE79548006802287AD111E015
:105440004FF4004003F0B8FE60B14FF0000A05E0F1
:1054500003F08BFE46F82A000AF1010ABAF1080FA0
:10546000F6D320369348406B40F22A310842E7D009
:10547000082003F0A1FE30B1082003F0A7FE4FF092
:105480000408404646E7022003F096FE38B10220A9
:1054900003F09CFE4FF0020840463BE78AE02020E4
:1054A00003F08AFE30B1202003F090FE4FF0060892
:1054B00040462FE74FF4007003F07EFE38B14FF402
:1054C000007003F083FE4FF00708404622E703E038
:1054D00003F04BFE3060361D4FF4001003F06CFEFD
:1054E0000028F5D14FF4807003F066FE18B36D48C4
:1054F000006838B16B480068022803D0694800682A
:10550000012818D10020684908600C20486040201C
:1055100088600020C8604FF480600861084603F08E
:10552000D9FD0C20FEF79BFE8046B8F12A0F02D071
:105530004046EFE604E040F2FF5003F047FE39E05A
:1055400052480068012813D1012148F22A3003F0A3
:10555000B1FD00BF4E48006818B94E4800782A28AF
:10556000F8D04C4800782A2824D04A480078D1E660
:1055700046480068F0B9012140F22A3003F09AFD54
:10558000012003F0A4FD05FB04F13846FFF72FFDD1
:1055900000BFFFF727FD30B93D48006818B93D4806
:1055A00000782A28F5D03B4800782A2802D03948CC
:1055B0000078AFE64046ADE67CB504462A250020DB
:1055C000019000903C4800880004374908600D2095
:1055D0004860402088600020C8604FF48060086107
:1055E000084603F077FD3348406B009002E03148F5
:1055F000406B0090009810F0450FF8D0009810F024
:10560000040F05D00325042003F0E0FD28467CBDEF
:10561000009810F0010F05D00125012003F0D6FD00
:105620002846F4E703F070FD009000980D2802D0A2
:1056300010252846EBE740F2FF5003F0C7FD00209D
:1056400003F066FD01900198C0F3432020701B49D0
:105650000198084201D12846D9E7019810F0004F7F
:1056600001D01C20D3E7019810F0804F01D0092011
:10567000CDE7019810F0005F01D00A20C7E701983C
:1056800010F0805F1CD00B20C1E700005800002004
:1056900068000020640000205C000020FFFF0F0075
:1056A000A409002050000020900900206000002084
:1056B00074000020008001405400002008E0FFFD3D
:1056C000019810F0006F01D00C20A0E7019810F0B5
:1056D000806F01D00D209AE7019810F0807F01D0F3
:1056E0000E2094E7019810F4000F01D00F208EE7F0
:1056F000019810F4800F01D0102088E7019810F471
:10570000001F01D0112082E7019810F4801F01D002
:1057100012207CE7019810F4002F01D0132076E7C7
:10572000019810F4802F01D0142070E7019810F434
:10573000003F01D015206AE7019810F4803F01D0A6
:10574000162064E7019810F4004F01D017205EE79F
:10575000019810F4804F01D0182058E7019810F4F8
:10576000005F01D0192052E7019810F0080F01D016
:105770001A204CE728464AE730B58BB005460C4660
:10578000FD4803F040FE0021FC4803F00EFEFC48FB
:105790000090019510200290A00803900020049032
:1057A00080200590800006908000079000200890DF
:1057B0004FF40050099000200A906946EF4803F02A
:1057C000C9FD0121ED4803F0F0FD0BB030BD2DE91E
:1057D000FF5F81468A4614462A25002003900290E6
:1057E00083460026019000270090C846B9F1000FBB
:1057F00004D12625284604B0BDE8F09F2A20E149BF
:1058000008700020E0490860E0490860E048E1498C
:105810000860002048608860C860086148610846E8
:1058200003F081FC002003F052FC002003F070FC28
:1058300010F0007F02D00E252846DCE7D64800682D
:10584000022802D104024FEA5A2A002C20DDB4F5C6
:10585000006F1DDC601E20421AD12046FFF7F2FBCC
:105860000390CE4804601020CC49486040208860F6
:105870000020C8604FF480600861084603F02AFCED
:105880001020FEF7ECFC05462A2D04D02846B2E78E
:1058900026252846AFE7C24800880004BF490860B3
:1058A0000D204860402088600020C8604FF4806070
:1058B0000861084603F00EFC0D20FEF7D0FC0546FB
:1058C0002A2D01D0284696E7002003F021FC019004
:1058D000DFF8BCB21EE0ABF1010BB1480088000458
:1058E000AE4908600D204860402088600020C860F4
:1058F0004FF480600861084603F0ECFB0D20FEF7D2
:10590000AEFC05462A2D01D0284674E7002003F09E
:10591000FFFB0190019810F4807F02D1BBF1000FD2
:10592000D9D1BBF1000F01D1292064E79B48C0F811
:1059300000A0182099494860402088600020C86075
:105940004FF480600861084603F0C4FB1820FEF79E
:1059500086FC05462A2D01D028464CE78B4804607A
:105960000020904908609048C0F800908848894914
:105970000860084644600398000188600020C86001
:10598000086101204861084603F0CDFB87480068A4
:10599000022866D134E04FF4804003F00DFC78B368
:1059A0007A480068801B20281ED278480078801B27
:1059B00010F0030F04D175480068801B800804E0D4
:1059C00072480068801B8008401C0090002707E098
:1059D000D8F8000003F0CCFB7F1C08F10408361D4A
:1059E000009887420CD2F3E7002704E058F827001C
:1059F00003F0BEFB7F1C082FF8D308F120082036E7
:105A00005F488038406B40F21A610842C3D00820DA
:105A100003F0D2FB28B1082003F0D8FB0425284668
:105A2000E9E6022003F0C8FB28B1022003F0CEFB18
:105A300002252846DFE6102003F0BEFB28B1102027
:105A400003F0C4FB05252846D5E64FF4007003F0AB
:105A5000B3FBE8B34FF4007003F0B8FB072528460A
:105A6000C9E652480068012813D1012144F21A30D6
:105A700003F020FB00BF4448006818B94148007893
:105A80002A28F8D03F4800782A2825D03D480078B9
:105A9000B1E646480068D8B9012140F21A3003F057
:105AA00009FB21464846FFF767FE012003F00FFB84
:105AB00000BFFFF797FA30B93348006818B931488A
:105AC00000782A28F5D02F4800782A2804D000E052
:105AD00002E02C4800788EE640F2FF5003F076FB9F
